{
  "transactions": [
    {
      "hash": null,
      "transactionType": "CALL",
      "contractName": null,
      "contractAddress": "0x61595c6eef6ea1f6413de383106c957de524197c",
      "function": "mint(address,uint256)",
      "arguments": [
        "0x9a56fFd72F4B526c523C733F1F74197A51c495E1",
        "1000000000000000000000"
      ],
      "transaction": {
        "from": "0x20075328386f9c96c7f82d4bf144fc890a64fb38",
        "to": "0x61595c6eef6ea1f6413de383106c957de524197c",
        "gas": "0xc388",
        "value": "0x0",
        "input": "0x40c10f190000000000000000000000009a56ffd72f4b526c523c733f1f74197a51c495e100000000000000000000000000000000000000000000003635c9adc5dea00000",
        "nonce": "0x4",
        "chainId": "0x128"
      },
      "additionalContracts": [],
      "isFixedGasLimit": false
    }
  ],
  "receipts": [],
  "libraries": [],
  "pending": [],
  "returns": {},
  "timestamp": 1754705966,
  "chain": 296,
  "commit": "55062c0"
}