{
  "transactions": [
    {
      "hash": "0x94aa6bfde50042d420d7f09c8292b8ce46a9e87352326184b2cdf558d5915b7e",
      "transactionType": "CALL",
      "contractName": null,
      "contractAddress": "0x61595c6eef6ea1f6413de383106c957de524197c",
      "function": "mint(address,uint256)",
      "arguments": [
        "0x9a56fFd72F4B526c523C733F1F74197A51c495E1",
        "1000000000000000000000"
      ],
      "transaction": {
        "from": "0x20075328386f9c96c7f82d4bf144fc890a64fb38",
        "to": "0x61595c6eef6ea1f6413de383106c957de524197c",
        "gas": "0x186ea",
        "value": "0x0",
        "input": "0x40c10f190000000000000000000000009a56ffd72f4b526c523c733f1f74197a51c495e100000000000000000000000000000000000000000000003635c9adc5dea00000",
        "nonce": "0x2",
        "chainId": "0x128"
      },
      "additionalContracts": [],
      "isFixedGasLimit": false
    }
  ],
  "receipts": [
    {
      "status": "0x1",
      "cumulativeGasUsed": "0x138bc",
      "logs": [
        {
          "address": "0x61595c6eef6ea1f6413de383106c957de524197c",
          "topics": [
            "0xddf252ad1be2c89b69c2b068fc378daa952ba7f163c4a11628f55a4df523b3ef",
            "0x0000000000000000000000000000000000000000000000000000000000000000",
            "0x0000000000000000000000009a56ffd72f4b526c523c733f1f74197a51c495e1"
          ],
          "data": "0x00000000000000000000000000000000000000000000003635c9adc5dea00000",
          "blockHash": "0xca24b9da6494a7bd21791b1d9e75f9dc0c95267f7cf8f9366dc2ea66f4c2f64f",
          "blockNumber": "0x163f06a",
          "transactionHash": "0x94aa6bfde50042d420d7f09c8292b8ce46a9e87352326184b2cdf558d5915b7e",
          "transactionIndex": "0x0",
          "logIndex": "0x0",
          "removed": false
        }
      ],
      "logsBloom": "0x00000004000000000000000000000000000000000000000000000000000000000000000000000000000000000000000000000000000000000000000000000000000000000000000000000008000000000000000000000000000000000000000000000000020000000000000000000800000002000000000000000010000000000000000000000000000000000800000000000000000000000000000000000000000010000000000000000000000000000000000000000000000000000000020000000002008000000000000000000000000000000000000000000000000020000000000000000000000000000000000000000000000000000000000000000000",
      "type": "0x2",
      "transactionHash": "0x94aa6bfde50042d420d7f09c8292b8ce46a9e87352326184b2cdf558d5915b7e",
      "transactionIndex": "0x0",
      "blockHash": "0xca24b9da6494a7bd21791b1d9e75f9dc0c95267f7cf8f9366dc2ea66f4c2f64f",
      "blockNumber": "0x163f06a",
      "gasUsed": "0x138bc",
      "effectiveGasPrice": "0x4a817c8000",
      "from": "0x20075328386f9c96c7f82d4bf144fc890a64fb38",
      "to": "0x61595c6eef6ea1f6413de383106c957de524197c",
      "contractAddress": "0x61595c6eef6ea1f6413de383106c957de524197c",
      "root": "0x56e81f171bcc55a6ff8345e692c0f86e5b48e01b996cadc001622fb5e363b421"
    }
  ],
  "libraries": [],
  "pending": [],
  "returns": {},
  "timestamp": 1754698867,
  "chain": 296,
  "commit": "55062c0"
}